{
  "contractName": "TodoList",
  "abi": [
    {
      "constant": true,
      "inputs": [
        {
          "name": "",
          "type": "uint256"
        }
      ],
      "name": "tasks",
      "outputs": [
        {
          "name": "Id",
          "type": "uint256"
        },
        {
          "name": "Content",
          "type": "string"
        },
        {
          "name": "Done",
          "type": "bool"
        }
      ],
      "payable": false,
      "stateMutability": "view",
      "type": "function",
      "signature": "0x8d977672"
    },
    {
      "constant": true,
      "inputs": [],
      "name": "taskCount",
      "outputs": [
        {
          "name": "",
          "type": "uint256"
        }
      ],
      "payable": false,
      "stateMutability": "view",
      "type": "function",
      "signature": "0xb6cb58a5"
    },
    {
      "inputs": [],
      "payable": false,
      "stateMutability": "nonpayable",
      "type": "constructor",
      "signature": "constructor"
    },
    {
      "constant": false,
      "inputs": [
        {
          "name": "_content",
          "type": "string"
        }
      ],
      "name": "createTask",
      "outputs": [],
      "payable": false,
      "stateMutability": "nonpayable",
      "type": "function",
      "signature": "0x111002aa"
    },
    {
      "constant": true,
      "inputs": [
        {
          "name": "id",
          "type": "uint256"
        }
      ],
      "name": "readTask",
      "outputs": [
        {
          "name": "",
          "type": "uint256"
        },
        {
          "name": "",
          "type": "string"
        },
        {
          "name": "",
          "type": "bool"
        }
      ],
      "payable": false,
      "stateMutability": "view",
      "type": "function",
      "signature": "0xab755faf"
    },
    {
      "constant": false,
      "inputs": [
        {
          "name": "id",
          "type": "uint256"
        }
      ],
      "name": "markTaskAsDone",
      "outputs": [],
      "payable": false,
      "stateMutability": "nonpayable",
      "type": "function",
      "signature": "0x8f735192"
    },
    {
      "constant": false,
      "inputs": [
        {
          "name": "id",
          "type": "uint256"
        }
      ],
      "name": "deleteTask",
      "outputs": [],
      "payable": false,
      "stateMutability": "nonpayable",
      "type": "function",
      "signature": "0x560f3192"
    }
  ],
  "bytecode": "0x608060405234801561001057600080fd5b5061005e6040805190810160405280601081526020017f5761746572206d7920706c616e74732e00000000000000000000000000000000815250610063640100000000026401000000009004565b61019b565b600080815480929190600101919050555060606040519081016040528060005481526020018281526020016000151581525060016000805481526020019081526020016000206000820151816000015560208201518160010190805190602001906100cf9291906100f6565b5060408201518160020160006101000a81548160ff02191690831515021790555090505050565b828054600181600116156101000203166002900490600052602060002090601f016020900481019282601f1061013757805160ff1916838001178555610165565b82800160010185558215610165579182015b82811115610164578251825591602001919060010190610149565b5b5090506101729190610176565b5090565b61019891905b8082111561019457600081600090555060010161017c565b5090565b90565b61075b806101aa6000396000f3fe608060405260043610610078576000357c0100000000000000000000000000000000000000000000000000000000900463ffffffff168063111002aa1461007d578063560f3192146101455780638d977672146101805780638f73519214610246578063ab755faf14610281578063b6cb58a514610347575b600080fd5b34801561008957600080fd5b50610143600480360360208110156100a057600080fd5b81019080803590602001906401000000008111156100bd57600080fd5b8201836020820111156100cf57600080fd5b803590602001918460018302840111640100000000831117156100f157600080fd5b91908080601f016020809104026020016040519081016040528093929190818152602001838380828437600081840152601f19601f820116905080830192505050505050509192919290505050610372565b005b34801561015157600080fd5b5061017e6004803603602081101561016857600080fd5b8101908080359060200190929190505050610405565b005b34801561018c57600080fd5b506101b9600480360360208110156101a357600080fd5b810190808035906020019092919050505061044a565b604051808481526020018060200183151515158152602001828103825284818151815260200191508051906020019080838360005b838110156102095780820151818401526020810190506101ee565b50505050905090810190601f1680156102365780820380516001836020036101000a031916815260200191505b5094505050505060405180910390f35b34801561025257600080fd5b5061027f6004803603602081101561026957600080fd5b8101908080359060200190929190505050610519565b005b34801561028d57600080fd5b506102ba600480360360208110156102a457600080fd5b810190808035906020019092919050505061055b565b604051808481526020018060200183151515158152602001828103825284818151815260200191508051906020019080838360005b8381101561030a5780820151818401526020810190506102ef565b50505050905090810190601f1680156103375780820380516001836020036101000a031916815260200191505b5094505050505060405180910390f35b34801561035357600080fd5b5061035c61063c565b6040518082815260200191505060405180910390f35b600080815480929190600101919050555060606040519081016040528060005481526020018281526020016000151581525060016000805481526020019081526020016000206000820151816000015560208201518160010190805190602001906103de929190610642565b5060408201518160020160006101000a81548160ff02191690831515021790555090505050565b6001600082815260200190815260200160002060008082016000905560018201600061043191906106c2565b6002820160006101000a81549060ff0219169055505050565b6001602052806000526040600020600091509050806000015490806001018054600181600116156101000203166002900480601f0160208091040260200160405190810160405280929190818152602001828054600181600116156101000203166002900480156104fc5780601f106104d1576101008083540402835291602001916104fc565b820191906000526020600020905b8154815290600101906020018083116104df57829003601f168201915b5050505050908060020160009054906101000a900460ff16905083565b600054811115151561052a57600080fd5b600180600083815260200190815260200160002060020160006101000a81548160ff02191690831515021790555050565b600060606000806001600086815260200190815260200160002090508060000154816001018260020160009054906101000a900460ff16818054600181600116156101000203166002900480601f0160208091040260200160405190810160405280929190818152602001828054600181600116156101000203166002900480156106275780601f106105fc57610100808354040283529160200191610627565b820191906000526020600020905b81548152906001019060200180831161060a57829003601f168201915b50505050509150935093509350509193909250565b60005481565b828054600181600116156101000203166002900490600052602060002090601f016020900481019282601f1061068357805160ff19168380011785556106b1565b828001600101855582156106b1579182015b828111156106b0578251825591602001919060010190610695565b5b5090506106be919061070a565b5090565b50805460018160011615610100020316600290046000825580601f106106e85750610707565b601f016020900490600052602060002090810190610706919061070a565b5b50565b61072c91905b80821115610728576000816000905550600101610710565b5090565b9056fea165627a7a72305820ade41ddc66184f39d7f87956d3aa2cbc95f3094dd26db1cc60703d4c69eb86ea0029",
  "source": "// SPDX-License-Identifier: MIT\npragma solidity >=0.4.22 <0.9.0;\n\ncontract TodoList {\n    uint public taskCount;\n\n    struct Task {\n        uint Id;\n        string Content;\n        bool Done;\n    }\n\n    mapping (uint => Task) public tasks;\n\n    constructor() public {\n        createTask(\"Water my plants.\");\n    }\n\n    function createTask(string memory _content) public {\n        taskCount++;\n        tasks[taskCount] = Task(taskCount, _content, false);\n    }\n\n    function readTask(uint id) view public returns(uint, string memory, bool) {\n        Task storage task = tasks[id];\n        return (task.Id, task.Content, task.Done);\n    }\n\n    function markTaskAsDone(uint id) public {\n        require(id <= taskCount);\n        tasks[id].Done = true;\n    }\n\n    function deleteTask(uint id) public {\n        delete tasks[id];\n    }\n}",
  "sourcePath": "/home/mp/Codes/BlockChain/Ethereum-with-React/tl-smartcontract/contracts/TodoList.sol",
  "compiler": {
    "name": "solc",
    "version": "0.5.0+commit.1d4f565a.Emscripten.clang"
  },
  "schemaVersion": "3.0.1",
  "updatedAt": "2021-12-14T13:09:22.886Z",
  "devdoc": {
    "methods": {}
  },
  "userdoc": {
    "methods": {}
  }
}